:1000000000000420850300006D0300006F03000062
:10001000710300007303000075030000000000007E
:100020000000000000000000000000007703000056
:1000300079030000000000007B0300007D03000046
:100040007F0300007F030000B92B0000C93B0000C4
:10005000E13B00007F0300007F0300007F030000FE
:100060007F0300007F0300007F0300007F03000088
:100070007F0300007F0300007F0300007F03000078
:100080007F0300007F0300007F0300007F03000068
:100090007F0300007F0300007F0300007F03000058
:1000A0007F0300007F0300007F0300007F03000048
:1000B0007F0300007F03000000000000000000003C
:1000C0007F0300007F0300007F0300007F03000028
:1000D0007F0300007F0300007F0300007F03000018
:1000E0007F0300007F0300007F030000000000008A
:1000F000000000007F030000000000007F030000FC
:1001000000000000000000000000000000000000EF
:1001100000000000000000000000000000000000DF
:1001200000000000000000000000000000000000CF
:1001300000000000000000000000000000000000BF
:1001400000000000000000000000000000000000AF
:10015000000000000000000000000000000000009F
:10016000000000000000000000000000000000008F
:10017000000000000000000000000000000000007F
:10018000000000000000000000000000000000006F
:10019000000000000000000000000000000000005F
:1001A000000000000000000000000000000000004F
:1001B000000000000000000000000000000000003F
:1001C000000000000000000000000000000000002F
:1001D000000000000000000000000000000000001F
:1001E000000000000000000000000000000000000F
:1001F00000000000000000000000000000000000FF
:1002000039493A480A1A02D0072291438D463849A3
:1002100038480A1A06D00722914381F3098802223E
:1002200082F3148834483549354A00F03EF83548A1
:100230003549364A00F039F835483649364A00F033
:1002400034F836483649374A00F02FF836483749EF
:10025000374A00F02AF837483749384A00F025F87D
:1002600037483849384A00F020F8384838490022E1
:1002700000F033F837483849002200F02EF83748AC
:100280003749091A05F044FD364A90472448254964
:10029000884205D00268043003B4904703BCF7E7F6
:1002A00000200021304A9047FEE7884214D0521ABD
:1002B00012D003460B4313430324234206D10368A1
:1002C00004300B600431043AF9D1704703780130EF
:1002D0000B700131013AF9D17047884202D00270A7
:1002E0000130FAE7704700000000042000E003201E
:1002F0000000042000000420A47000000000002082
:1003000070000020E0030000E0030000805E0000B9
:10031000A47000000000002000000020CC5E00005F
:10032000CC5E0000CC5E0000CC5E0000CC5E000025
:10033000CC5E0000CC5E0000CC5E0000A17000002E
:100340001471000070000020700000207000002078
:100350004C0700204C0700204C0700204C070020D1
:100360004C270020AD03000065550000FEE7FEE7C6
:10037000FEE7FEE7FEE7FEE7FEE7FEE7FEE7FEE755
:1003800000F002B8FFF7FCBF0F484FF007018843A9
:1003900085460E4880470E48016841F470010160AF
:1003A000BFF34F8FBFF36F8FFFF72ABF09480A498A
:1003B0000A4A884207D0521A05D0037801300B70E0
:1003C0000131013AF9D1704700000420E95A0000D8
:1003D00088ED00E0CC5E000000000020000000205E
:1003E00000B5A1B00590049103920293049802F025
:1003F00040F8039B1593029B169300231793002349
:100400008DF8603000231993229B1A9300231F93C9
:100410000FA91F9B0822049802F002F908231F93DA
:10042000119B1293BDF84030ADF84C30BDF842300E
:10043000ADF84E3000238DF851309DF83C3003F07C
:100440000303DBB2012B26D10F9BC3F395231C932F
:100450009DF83C30C3F3C203DBB28DF85030BDF8D9
:100460003C30C3F38313DBB21B931B9B9A0009A997
:100470001F9B049802F0D4F81B9B9B001F9A134407
:100480001F9312AA09A915AB009313461B9A1C9837
:1004900000F0BCFF2FE09DF83C3003F00303DBB21B
:1004A000022B28D1BDF83E30C3F389139BB21E93B3
:1004B0009DF83C30C3F3C203DBB28DF850301E9B75
:1004C000082B28BF08231D9307A91F9B1D9A04987A
:1004D00002F0A6F81F9A1D9B13441F931E9A1D9BA2
:1004E000D31A1E9315AB12AA07A81D9901F042F862
:1004F0001E9B002BE3D1049801F0C9FF00BF21B07F
:1005000000BD000000B583B00190019B1B781A4626
:100510000C4B9B5C002B05D0019B0433184604F068
:1005200095FD0BE0019B1B781A46064B9B5C002B4C
:1005300004D1019B0C33184603F02EFF00BF03B01B
:1005400000BD00BF8006002000B587B00390029177
:1005500013468DF8073000230593039B1B781A463A
:10056000104B9B5C002B09D0039B04339DF80720A4
:100570000299184604F0CCFD05900FE0039B1B7810
:100580001A46084B9B5C002B08D1039B0C339DF84B
:1005900007200299184603F073FF0590059B184643
:1005A00007B000BD8006002082B001900091034B8F
:1005B00001221A7000BF02B0704700BFB0000020D7
:1005C00030B58DB003468DF807301A4B02AC1D468E
:1005D0000FCD0FC495E80F0084E80F0006230293A7
:1005E0004FF0FF3303934FF0FF3304934FF0FF338B
:1005F00005934FF0EB7308939DF80730002B01D063
:100600000D4A00E0002202AB19460C4802F066FADF
:100610000B900B9B0A930A9B002B04D0084A4321A2
:100620000A9801F06BF8074A9DF80730137000BF75
:100630000DB030BD5C5F0000A90500000000002087
:10064000CC5E0000B100002000B583B001238DF81E
:1006500007309DF807301846FFF7B2FF00BF03B020
:1006600000BD000000B589B0039002910192019B8A
:100670008DF81F30124B00221A709DF81F301A4659
:1006800002991048FFF760FF0690069B0593059BB3
:10069000002B04D00C4A5321059801F02FF800BF1D
:1006A0000A4B1B78002B07D0054B1B78DBB283F07D
:1006B0000103DBB2002BF3D100BF09B000BD00BFC6
:1006C000B000002000000020CC5E0000B10000203F
:1006D00000B585B003900291054B00934023054A75
:1006E00002990398FFF77CFE00BF05B000BD00BF74
:1006F000650600007000002082B0019000BF02B0CB
:100700007047000000B583B001900448FFF7FAFE7F
:100710000020FFF755FF00BF03B000BD0000002020
:1007200082B00190019BDB6801225A7100BF02B0C8
:100730007047000000B583B04FF0FF330193FFF71F
:1007400083FF0421084800F07DFD0190019B002BF0
:1007500003DA0649482001F0C4F80348FFF7E0FF38
:1007600000BF03B000BD00BFA85E00009C5F00009A
:1007700000B583B001900091019B1B681B68009934
:100780000198984700BF03B000BD00B583B0019049
:10079000019B1B685B680198984700BF03B000BDD0
:1007A00000B583B00190019B1B689B680198984736
:1007B00000BF03B000BD82B001900B468DF803303E
:1007C000019BDB689DF803201A7100BF02B07047DF
:1007D00082B00190019BDB681B79184602B070471C
:1007E00082B00190019BDB6801225A7100BF02B008
:1007F000704782B00190019BDB685B79184602B0BC
:100800007047000000B585B0019000910B4B0022AD
:100810001A700B4801F094FD0390039B002B01D04C
:10082000039B08E0074801F019FF074A074BD31A5A
:10083000DB0802930023184605B000BD1C0200200F
:10084000B85E000030600000A85E0000805E00001E
:10085000024A034BD31ADB0818467047A85E000013
:10086000805E000000B587B001900B468DF8033024
:100870009DF80330002B1FD0FFF7EAFF0490002300
:10088000059313E0059B9B000D4A13440393039BC0
:100890001B881A46019B1B689A4204D1019B059A4A
:1008A0001A60002309E0059B01330593059A049B18
:1008B0009A42E7D3052300E00023184607B000BDA5
:1008C0000000002000B585B001900B468DF8033084
:1008D0009DF8032001AB11461846FFF7C3FF0346FE
:1008E000002B07D1019BDB00044A13440393039BB5
:1008F0001B6800E00023184605B000BD805E0000C4
:1009000084B001900B468DF80330019BDB00164A42
:10091000134402939DF80330042B17D0042B1ADCE8
:10092000032B0ED0032B16DC012B02D0022B04D09C
:1009300011E002238DF80F3011E004238DF80F3001
:100940000DE0029B1B798DF80F3008E0029B5B796C
:100950008DF80F3003E000238DF80F3000BF9DF8B5
:100960000F30184604B07047805E000084B00190DC
:10097000009100238DF80F30019B1B7803F00403D6
:10098000DBB2002B24D0019B1B78C3F30103DBB245
:10099000012B02D0022B0CD017E0009B1B68019AA0
:1009A0001288C2F38312D2B213449A1C009B1A60BD
:1009B0000BE0009B1B68019A5288C2F3891292B225
:1009C00013449A1C009B1A6000BF01238DF80F305E
:1009D0009DF80F30184604B07047000000B58BB08A
:1009E0000023ADF826303D4801F002F83C4800F005
:1009F000FFFF3C4B9B6804933B4B1B680693049A98
:100A0000069B134002339B00364A13440433089379
:100A100004AB19460898FFF7A9FF0346002B09D03D
:100A2000049A069B134002339B002E4A134404335E
:100A30000893EDE700BF0023079311E0049B5A1CC5
:100A40000492069A1340079A920001A90A44254984
:100A500002339B000B445B681360079B01330793D1
:100A6000079B012BEAD99DF80430C3F30103DBB2E5
:100A7000012B10D0022B1CD1BDF80A30ADF8263066
:100A8000BDF80630C3F389139BB203339A08049B65
:100A90001344049313E0BDF80A30ADF82630BDF8D6
:100AA0000430C3F38313DBB21A46049B134404934C
:100AB00005E00E494FF4C27000F013FF00BF084874
:100AC00000F0A1FF0590059B002B02D0049B054A76
:100AD0009360BDF8263018460BB000BD34060020E8
:100AE000300600201C0200201C0000204060000096
:100AF00000B585B00021074800F008FF0390039B74
:100B00000293029B83F310030193019B184605B0E7
:100B100000BD00BF3806002000B589B003900291E7
:100B200001920093039B1B0C0793FFF7E1FF0690D4
:100B3000FFF78EFE0246079B934204D3214940F201
:100B4000A91000F0CEFE069B1904009B5A1C0A9BBC
:100B50001340079A0A431C4902339B000B445A6016
:100B6000009A0A9B134002339B00174A1344043334
:100B70000593039B03F00703D9B2059A137861F339
:100B8000C5031370019B03F00F03D9B2059A1388B4
:100B900061F389131380029BC3F31501059A13684F
:100BA00061F39F231360059A1378012161F3010318
:100BB0001370059A137823F00403137000BF09B073
:100BC00000BD00BF406000001C02002000BF704755
:100BD00000B58BB00390029113468DF80730039B4C
:100BE0000233089301238DF81F30002000F032FEFD
:100BF0003E4B5A68029B1A603D4B1A683B4B996802
:100C00003A4B5B68CB1A13440133099314E001217A
:100C1000384800F0BFFEFFF7E1FE05900599354822
:100C200000F0B8FE324B1A68304B99682F4B5B6866
:100C3000CB1A134401330993089A099B9A42E6D8C8
:100C40009DF81F30002B48D0002304939DF80730F7
:100C5000002B17D09DF81030012262F301038DF8AC
:100C600010309DF8103043F004038DF81030039BD2
:100C700003F00F03DAB2BDF8103062F38913ADF858
:100C8000103016E09DF81030022262F301038DF857
:100C900010309DF8103043F004038DF81030039BA2
:100CA000C3F309039AB2BDF8123062F38F13ADF8A3
:100CB00012300E4B5A680E4B1B68134002339B00D8
:100CC0000A4A134404330693049A069B1A60074B9E
:100CD0005A68089B1344054A5360002000F0CEFD7B
:100CE0009DF81F3018460BB000BD00BF1C0200204D
:100CF0001C0000203806002000B58BB00590049140
:100D0000039202931F4B1B68079306AB01221946FF
:100D10000298FFF75DFF0346002B24D0069B0233A9
:100D200009930023089311E0089B9B00039A1A443F
:100D3000099B591C099107990B401268124902330B
:100D40009B000B445A60089B01330893089A029B4E
:100D50009A42E9D3069A079B00931346029A049994
:100D60000598FFF7D9FE084B1B78002B04D000F044
:100D700065F80346002BFAD1FFF728FF00BF0BB040
:100D800000BD00BF1C0000201C02002000B583B085
:100D9000019000910023002200990198FFF7ACFF19
:100DA00000BF03B000BD00B587B00390029101926F
:100DB000019B059305AA012302990398FFF79CFF65
:100DC00000BF07B000BD00B587B00390029101924B
:100DD0000093019B0493009B059304AA02230299AC
:100DE0000398FFF789FF00BF07B000BD00B58BB0C7
:100DF0000390029101920093019B0593009B06933F
:100E00000C9B07930D9B08930E9B099305AA052342
:100E100002990398FFF770FF00BF0BB000BD000000
:100E2000054B9A68044B5B689A420CBF0123002370
:100E3000DBB21846704700BF1C02002000B599B015
:100E4000FFF7EEFF0346002B01D00023BBE19C4BD4
:100E50000022C3F81824BFF34F8F00BF984B9B6844
:100E60000493984B1B680C93049A0C9B1340023319
:100E70009B00934A134404330E93002317930023DB
:100E8000169300230B9304AB19460E98FFF76EFDE3
:100E90000346002B19D08A4BD3F81834002B14D1F9
:100EA000874B5A68049B9A4205D8854B5B68844AF5
:100EB0009360002387E1049A0C9B134002339B004C
:100EC0007F4A134404330E93DDE70023159311E0AA
:100ED000049B5A1C04920C9A1340159A920001A983
:100EE0000A44774902339B000B445B681360159BEF
:100EF00001331593159B012BEAD99DF8043003F0BB
:100F00000303DBB2022B40F09F80BDF80630C3F331
:100F100089139BB20993BDF80630C3F389139BB2C2
:100F2000502B28BF50239BB20893089BC3F309039F
:100F30009AB2BDF8063062F38F13ADF80630089B05
:100F4000083307939DF80430C3F3C203DBB20B935D
:100F500007995D4801F0FEF91790179B002B00F0F0
:100F6000D580179801F085FA01A9169B08221798D9
:100F700001F038FB169B08331693049BDA430C9B55
:100F8000134001339B000693089A069B9A4245D969
:100F9000069B002B09D0049A0C9B134002339B0044
:100FA000474A13440433149301E0484B1493069BBF
:100FB000002B03D0069B8DF84F3002E0089B8DF884
:100FC0004F30069B002B02D0404B129301E00023D0
:100FD0001293069B002B07D0089BDAB2069BDBB26C
:100FE000D31A8DF8473002E000238DF847309DF882
:100FF0004F20169B1499179801F0F4FA9DF84F3082
:10100000169A13441693129B002B16D09DF8472076
:10101000169B1299179801F0E5FA0EE0049A0C9BC2
:10102000134002339B00264A134404330593169B56
:10103000089A0599179801F0D5FA099B03339A0885
:10104000049B1344049361E09DF8043003F0030310
:10105000DBB2012B5AD1BDF80430C3F38313DBB2EA
:10106000062B28BF0623DAB2BDF8043062F38913D9
:10107000ADF80430BDF80430C3F38313DBB20233A0
:101080000A939DF80430C3F3C203DBB20B930A9BAF
:101090009B0019460C4801F05DF91790179B002B37
:1010A00034D0179801F0E5F901A9169B082217988A
:1010B00001F098FA169B08331693002315931CE051
:1010C0001C0200201C000020B85E00002802002046
:1010D000049B5A1C04920C9A134002339B003B4A17
:1010E0001344191D169B0422179801F07BFA169BD6
:1010F00004331693159B01331593BDF80430C3F3E5
:101100008313DBB21A46159B9342E1D3179B002B46
:1011100039D02E4BD3F8103410932C4BD3F818340D
:10112000002B1BD0179801F0B2F946E000238DF890
:101130003F301098FFF75DFB0346002B02D00123E0
:101140008DF83F309DF83F30002B03D01799109851
:10115000FFF70EFB109BDB681B681093109B002BA6
:10116000E4D1179801F093F9002000F073FB174BBE
:10117000D3F81834002B02D1049B144A936000204A
:1011800000F07CFB19E0114BD3F810340D9306E00E
:101190000D98FFF705FB0D9BDB681B680D930D9BFE
:1011A000002BF5D10A4A0B4BD31ADB081B0443F082
:1011B000020309491846FFF7E9FDFFF731FE034630
:1011C00083F00103DBB2184619B000BD1C020020F9
:1011D000A05E0000805E0000CC60000000B585B01D
:1011E0000023039323E0164BD3F81034029301231A
:1011F0008DF807300FE00298FFF7EAFA03461A4627
:10120000039B934203D100238DF8073006E0029B35
:10121000DB681B680293029B002BECD19DF8073022
:10122000002B01D0039B07E0039B01330393039B37
:10123000092BD8DD4FF0FF33184605B000BD00BFC5
:101240001C02002000B585B001900B468DF80330DC
:10125000FFF7C4FF0390039BB3F1FF3F01D1039B52
:1012600022E0039BDBB219460198FFF7A4FA104B6A
:10127000D3F81034002B08D10D4A019BC2F810346A
:10128000019BDB6800221A600DE0094BD3F8103493
:10129000DA68019BDB6812681A60054BD3F81034DA
:1012A000DB68019A1A60039B184605B000BD00BFB9
:1012B0001C02002000B583B00C4BD3F8103401930E
:1012C0000A4B01221A7009E00198FFF789FA019888
:1012D000FFF75BFA019BDB681B680193019B002B06
:1012E000F2D100BF00BF03B000BD00BF1C02002050
:1012F00082B00190009100BF02B0704710B584B079
:1013000003900291039BDB88002B0AD0039BDB88B0
:101310001A461F4B009313461E4A1F49029800F0BD
:1013200099FC039B1B7A052B2ED0039B5B7A002B29
:1013300012D0039B9B881A46039B1B7A19461046C2
:10134000FFF7DEFA03461A46144B53F822301A46CA
:101350001349029800F07EFC039B1B681946029813
:10136000FFF7C6FF039B1B7A1A460E4B53F8224029
:10137000039B9B8800211846FFF7A4FA03462246E8
:101380000949029800F066FC00BF04B010BD00BF20
:10139000006100001061000048610000340000207E
:1013A00060610000200000206461000000B585B08D
:1013B0000390029113468DF80730039B1B7A052B8F
:1013C0000FD0039B5B7A002B06D00D4B1B681A468F
:1013D0000C49029800F03EFC0B49029800F03AFCE0
:1013E00007E09DF80730002B03D00749029800F072
:1013F00031FC029800F00EFC00BF05B000BD00BF3C
:1014000034000020606100007061000030B58BB0D6
:1014100007900691059204930E9B1B7B8DF8273055
:101420000E9B00221A730E990498FFF767FF059B25
:10143000062B76D0059B062B00F28F80059B052B93
:1014400057D0059B052B00F28880059B042B3CD0D0
:10145000059B042B00F28180059B032B26D0059B66
:10146000032B7AD8059B022B16D0059B022B74D830
:10147000059B002B03D0059B012B05D06DE0079940
:101480000E9800F0E7FB69E0069B1B681A46079977
:101490000E9800F0DFFB61E0069B1A68069B0433A0
:1014A0001B6807990E9800F0D5FB57E0069B1A6859
:1014B000069B04331968069B08331B6800930B4690
:1014C00007990E9800F0C6FB48E0069B1968069B3A
:1014D00004331868069B08331B68069A0C3212689E
:1014E0000192009303460A4607990E9800F0B2FB5A
:1014F00034E0069B1868069B04331C68069B08337F
:101500001B68069A0C32126806991031096802911C
:10151000019200932346024607990E9800F09AFB29
:101520001CE0069B1C68069B04331D68069B083361
:101530001B68069A0C3212680699103109680698E1
:101540001430006803900291019200932B462246CA
:1015500007990E9800F07EFB00E000BF00220E9974
:101560000498FFF723FF0E9B9DF827201A7300BFF6
:101570000BB030BD00B587B003900291019200938B
:10158000029B082B60D8009B1B7B8DF81330009BBF
:1015900000221A7300990198FFF7B0FE002305930B
:1015A00014E0059A029B9A4209D2039A059B1344C0
:1015B0001B781A462649009800F04CFB03E02549A9
:1015C000009800F047FB059B01330593059B072B13
:1015D000E7D92149009800F03DFB0023059326E060
:1015E000059A029B9A421BD2039A059B13441B78CF
:1015F0008DF812309DF812307E2B0AD89DF81230EB
:10160000184604F0F5FB0346002B02D09DF812307B
:1016100000E02E231A461149009800F01BFB03E05E
:101620000F49009800F016FB059B01330593059BBD
:10163000072BD5D9012200990198FFF7B7FE009B2F
:101640009DF813201A7300E000BF07B000BD00BF73
:10165000746100007C610000806100008461000012
:101660008861000086B003900291019201238DF8F9
:1016700017309DF81730204A039B13601E4A029BC7
:1016800053601D4A019B9360039B44F20102934205
:1016900012D0039B44F20202934220D1019B164ACE
:1016A000D360154BDB681B68134A9361124BDB68F0
:1016B0005B68114AD36112E0019B0F4A13610E4B24
:1016C0001B699B680C4A53610B4B1B691B680A4AD8
:1016D0009361094B1B695B68074AD36100BF72B60F
:1016E00000BF00BF9DF81730DBB2002BFAD162B605
:1016F00000BF00BF06B070473C06002000B583B0B5
:1017000002900091019244F2010071466A4600F095
:1017100003F803B000BD00BF30B58BB00790069151
:10172000059272B600BFFFF7C5FDFFF787FB0346C2
:10173000002BFAD1079B44F20102934216D0079B7B
:1017400044F2020293423ED1059B09932C4A2D4B51
:10175000D31ADB081B0443F00100099B5B681A469F
:10176000099B1B682849FFF72EFB39E0059B08936E
:10177000234A244BD31ADB081B0443F00104089BC3
:101780009D68089B9B68184600F086FF0346184634
:10179000089B5B681946089B1B68069A0292019396
:1017A000009103462A4619492046FFF71FFB144AB9
:1017B000144BD31ADB081B0443F0010314491846E9
:1017C000FFF7E4FA0CE00E4A0E4BD31ADB081B04B9
:1017D00043F00103069A0F491846FFF7E4FA00BFE9
:1017E0000D4B1B6803F00103002B00D000BE059ACF
:1017F00006990798FFF736FF00BF0BB030BD00BF5A
:10180000A05E0000805E00008C610000A861000006
:10181000D0610000E4610000F0ED00E072B600BFAE
:10182000034B1B680133024A136000BF704700BFBF
:101830005C060020064B1B68013B054A1360044B05
:101840001B68002B01D162B600BF00BF704700BF0C
:101850005C06002000B583B0019000F025F8034637
:10186000012B03D00449432000F03BF8FFF7D6FFDB
:1018700000BF03B000BD00BFFC61000000B583B035
:1018800003468DF8073000F00FF80346012B03D014
:101890000449512000F025F8FFF7CCFF00BF03B04A
:1018A00000BD00BFFC61000084B0EFF3058301932D
:1018B000019BC3F308030393039B002B0DD1EFF3AC
:1018C00014830093009B0293029B03F00103C3F374
:1018D000000383F00103DBB200E00123184604B0EB
:1018E000704700B585B003460091ADF80630BDF8ED
:1018F00006300293009B039302AB1A46002144F288
:101900000200FFF709FF00BF05B000BD10B487B0AB
:1019100001900091019B009A53E8004F104643E864
:10192000000191F0000FF7D1059404900391059BFD
:10193000184607B010BC704710B487B001900091F2
:10194000019B009A53E8004F44EA020043E800017B
:1019500091F0000FF6D1059404900391049B184672
:1019600007B010BC704710B487B001900091019B84
:10197000009A53E8004F04EA020043E8000191F0A6
:10198000000FF6D1059404900391059B184607B00B
:1019900010BC704710B487B001900091019B009A71
:1019A00053E8004F04EB020043E8000191F0000F00
:1019B000F6D1059404900391049B184607B010BC1F
:1019C000704710B487B001900091019B009A53E8D2
:1019D000004FA4EB020043E8000191F0000FF6D1A4
:1019E000059404900391049B184607B010BC7047FF
:1019F00000B583B0019001210198FFF79DFF0346D8
:101A0000184603B000BD00B583B0019000210198D5
:101A1000FFF7A9FF0346184603B000BD00B583B029
:101A200001900B468DF80330019B002B03D1084930
:101A3000E820FFF756FF019BDA689DF80330019913
:101A4000098A01FB03F31344184603B000BD00BF2D
:101A50008462000000B583B001900091019B002BCF
:101A600003D10849F520FFF73CFF009B019AD2689B
:101A70009B1A019A128AB3FBF2F3DBB2184603B049
:101A800000BD00BF8462000000B585B00190019BDD
:101A9000002B01D10E234CE0019B1B68002B03D1CE
:101AA0002549FF20FFF71DFF019B5B68002B04D138
:101AB00021494FF48070FFF714FF019B9B68002BB6
:101AC00004D11D4940F20110FFF70BFF019BDB68B9
:101AD000002B04D118494FF48170FFF702FF019BDE
:101AE0001B8A002B04D1144940F20310FFF7F9FEC2
:101AF000019B9A68019B5B68D31A8DF80F30019B9C
:101B00001B68019A52681A6007E0019B1A68136803
:101B1000591C11609DF80F201A709DF80F305A1E45
:101B20008DF80F20002BF0D1019B1B6800221A7149
:101B30000023184605B000BD8462000000B585B0E2
:101B40000190019B002B04D11B494FF49270FFF7C9
:101B5000C8FE002303930020FFF77CFE019B1B6857
:101B60001A68019B5B689A421FD9019B1B681A681F
:101B7000013A1A601B681B7819460198FFF74EFF5F
:101B80000390019B9A68019B1B681B68D31A8DF810
:101B90000B30019B1B681B799DF80B209A4204D9DE
:101BA000019B1B689DF80B201A710020FFF766FE51
:101BB000039B184605B000BD8462000010B584B0D8
:101BC00001900091019B002B04D1114940F2471074
:101BD000FFF787FE009B002B04D10D494FF4A47042
:101BE000FFF77FFE009B03930020FFF733FE019B6E
:101BF0001B681C68621C1A6003990198FFF72AFF92
:101C0000034623700020FFF739FE00BF04B010BD6B
:101C10008462000000B583B00190019B002B03D1CA
:101C20000B493120FFF75DFE019B9B68002B0CD018
:101C3000019B5B69019A1069019A1168019A926887
:101C40009847019B00229A6000E000BF03B000BDEE
:101C5000086300000EB400B584B00190019B002B16
:101C600003D118494220FFF73CFE019B5B69002B22
:101C700003D114494320FFF734FE019B1B68002B5E
:101C800003D110494420FFF72CFE019B5B68002B19
:101C900003D10C494520FFF724FE059B002B0AD0F9
:101CA0000023039306AB039303AB1A4605990198EF
:101CB00000F0B4F900E000BF04B05DF804EB03B03D
:101CC000704700BF0863000000B583B001900B4669
:101CD0008DF803309DF803300A2B03D10D210198B4
:101CE000FFF7F2FF019B1A68019B9B68581C019942
:101CF000886013449DF803201A70019B9A68019B29
:101D00005B689A4202D30198FFF784FF00BF03B0DB
:101D100000BD00B587B003900291019200930023AB
:101D20000593009B03F00103002B24D00BE0029BE2
:101D300001330293059B013305939DF81330194637
:101D40000398FFF7C1FF029B1B788DF813309DF8B5
:101D50001330002BEBD106E0019B013B01932021C6
:101D60000398FFF7B1FF019A059B9A422ED9019B78
:101D7000002BF1D12AE0029B002B0BD0029803F03C
:101D8000D2FF059006E0019B013B019320210398BF
:101D9000FFF79AFF019A059B9A420FD9019B002BEE
:101DA000F1D10BE0029B01330293059B01330593B4
:101DB0009DF8133019460398FFF786FF029B1B78A6
:101DC0008DF813309DF81330002BEBD100BF07B016
:101DD00000BD000000B589B003900291019200930C
:101DE000029B07930123069307E0079A019BB2FB2E
:101DF000F3F30793069B01330693079A019B9A42DC
:101E0000F3D2009A069B9A4201D9009B06930B9B42
:101E100003F00103002B22D10A9B002B1FD00B9B48
:101E200003F00203002B06D0009B002B03D13023CC
:101E30008DF8173002E020238DF8173008E00A9B58
:101E4000013B0A939DF8173019460398FFF73CFFB2
:101E50000A9B002B03D0069A0A9B9A42EFD30123D8
:101E60000793009B012B03D9009B013B009309E0E2
:101E7000029A079BB2FBF3F30493049A019B9A42E4
:101E800000D205E0079B019A02FB03F30793E8E702
:101E9000029A079BB2FBF3F30493049B079A02FB9D
:101EA00003F3029AD31A0293144A049B13441B7837
:101EB00019460398FFF708FF079A019BB2FBF3F35B
:101EC0000793079B002BE3D10B9B03F00103002B2F
:101ED00011D00A9B002B0ED006E00A9B013B0A930F
:101EE00020210398FFF7F0FE0A9B002B03D0069AEF
:101EF0000A9B9A42F1D300BF09B000BD0464000000
:101F000000B589B00590049103920293049B002BC5
:101F1000B8BF5B4206930123079307E0039B069A31
:101F200092FBF3F30693079B01330793039B069AF7
:101F30009A42F3DA029A079B9A4201D9029B0793CD
:101F40000A9B002B0AD0049B002B04DB0B9B03F0A5
:101F50000403002B02D00A9B013B0A930B9B03F066
:101F60000203002B02D0029B002B16D00B9B03F028
:101F70000103002B11D10A9B002B0ED006E00A9B17
:101F8000013B0A9320210598FFF79EFE0A9B002B38
:101F900003D0079A0A9B9A42F1D3049B002B07DADD
:101FA000049B5B4204932D210598FFF78DFE08E00A
:101FB0000B9B03F00403002B03D02B210598FFF7A4
:101FC00083FE0B9B03F00203002B19D00B9B03F045
:101FD0000103002B14D1029B002B11D10A9B002B73
:101FE0000ED006E00A9B013B0A9330210598FFF7CB
:101FF0006BFE0A9B002B03D0079A0A9B9A42F1D3EF
:1020000004990B9B01930A9B0093029B039A0598EA
:10201000FFF7E0FE00BF09B000BD000000B58FB0C3
:10202000059004910392059B002B04D19E4940F238
:102030005220FFF756FC059B5B69002B04D19A499F
:102040004FF41570FFF74DFC059B1B68002B04D166
:10205000954940F25520FFF744FC059B5B68002B37
:1020600004D1914940F25620FFF73BFC049B002B22
:1020700000F06381049B1B788DF83730049B01339B
:1020800004939DF83730002B00F04E819DF83730D7
:10209000252B40F03D8100230A9301230C93049BE0
:1020A0001B788DF837309DF83730302B0DD0302B22
:1020B0001BDC2B2B11D02D2B17D10A9B43F00103D6
:1020C0000A93049B0133049312E00A9B43F002033A
:1020D0000A93049B013304930AE00A9B43F0040330
:1020E0000A93049B0133049302E000230C9300BF86
:1020F0000C9B002BD3D1002309939DF837302A2B5A
:102100000CD1039B1B68191D039A11601B68099A67
:1021100013440993049B013304931AE0049B1B7836
:102120008DF837309DF837302F2B12D99DF8373086
:10213000392B0ED8049B01330493099A13469B0054
:1021400013445B001A469DF837301344303B099323
:10215000D3E700230B93049B1B788DF837309DF851
:1021600037302E2B1DD1049B01330493049B1B7825
:102170008DF837309DF837302F2B12D99DF8373036
:10218000392B0ED8049B013304930B9A13469B0002
:1021900013445B001A469DF837301344303B0B93D1
:1021A000E4E7049B1B788DF837309DF837306C2BB3
:1021B00003D09DF83730682B07D1049B013304937B
:1021C000049B1B788DF83730EFE79DF83730782B7C
:1021D00058D0782B00F39780752B41D0752B00F3E6
:1021E0009280732B62D0732B00F38D80702B6BD099
:1021F000702B00F38880692B20D0692B00F383803B
:10220000642B1BD0642B7EDC632B06D0632B7ADC23
:10221000252B73D0582B35D075E0039B1B68191DF7
:10222000039A11601B680C930C9B8DF81F309DF86E
:102230001F3019460598FFF747FD65E0039B1B68B3
:10224000191D039A11601B680C930A9B0193099B4B
:1022500000930B9B0A220C990598FFF751FE53E05F
:10226000039B1B68191D039A11601B680C930C9942
:102270000A9B0193099B00930B9B0A220598FFF789
:10228000A9FD41E0039B1B68191D039A11601B689F
:102290000C930C990A9B0193099B00930B9B1022B2
:1022A0000598FFF797FD2FE084630000039B1B68F0
:1022B000191D039A11601B6808930A9B099A0899D3
:1022C0000598FFF726FD1FE0039B1B68191D039A65
:1022D00011601B680C9330210598FFF7F5FC7821FD
:1022E0000598FFF7F1FC0C99002301930823009354
:1022F000082310220598FFF76DFD05E025210598BC
:10230000FFF7E2FC00E000BF049B0133049305E00B
:102310009DF8373019460598FFF7D6FC049B1B78CB
:10232000002B7FF4A7AE00E000BF059B1B7B002BBA
:1023300004D00598FFF76EFC00E000BF0FB000BDB1
:1023400000B583B001900198FFF79EFB0346184645
:1023500003B000BD00B58BB001900091019B1B8ABA
:10236000043B0793009A079B1344DA1C079BB2FBBC
:10237000F3F38DF81B300198FFF7E0FB0590059B08
:10238000002B01D1002338E0059B00221A71059B28
:1023900001225A71079B9AB2059BDA80059B09932B
:1023A0009DF81B30013B0493099B019A1A6000239E
:1023B00008931DE00198FFF7C1FB0390039B002BDE
:1023C0000ED0059B5B790133DAB2059B5A71099BEC
:1023D000039A1A60039B019A1A60039B099304E015
:1023E000059800F00DF8002307E0089B01330893DF
:1023F000089A049B9A42DDD3059B18460BB000BD9A
:1024000000B58BB00190019B0793079B5B798DF81A
:102410001B30019B08939DF81B30013B0593002363
:10242000099305E0089B1B680893099B01330993F6
:10243000099A059B9A42F5D3089B1B680493019B5C
:102440000893002309930BE0089B1B6803930899EA
:102450000498FFF7B3FB039B0893099B013309938F
:102460009DF81B30099A9A42EED300BF00BF0BB013
:1024700000BD00B585B00190019B0393039B04331D
:1024800001211846FFF786FA00BF05B000BD00B570
:1024900087B00190019B0593059B043301211846E9
:1024A000FFF78FFA0346039303AB0493049B1B7857
:1024B000002B02D10198FFF7A3FF00BF07B000BDBA
:1024C00000B591B00390029101920093039B002B01
:1024D00003D14349B620FFF704FA039B0993039BFA
:1024E0000F93099BDB881A46099B5B7902FB03F378
:1024F000043B0893009A089B9A4203D33849C420AE
:10250000FFF7EFF9099BDB880793009B1A1D079BD8
:10251000B2FBF3F30E93009B0433079AB3FBF2F282
:10252000079901FB02F29B1A0D93019B1A68009B0D
:102530001344089A9A4204D2089A009BD31A0C9327
:1025400002E0019B1B680C93019B0C9A1A6005E04A
:102550000F9B1B680F930E9B013B0E930E9B002B52
:10256000F6D100230B93079A0D9BD31A0A930A9A6C
:102570000C9B934228BF13460A932AE0029A0B9BB6
:10258000134406930F9A0D9B1344043305939DF84F
:102590004830002B05D00A9A0599069803F0DAFB1B
:1025A00004E00A9A0699059803F0D4FB00230D93E2
:1025B0000F9B1B680F930C9A0A9BD31A0C930B9AD0
:1025C0000A9B13440B93079A0C9B934228BF134614
:1025D0000A930C9B002BD1D100BF00BF11B000BDEE
:1025E0001464000000B589B0059004910392029331
:1025F000039B079307AA00230093029B0499059865
:10260000FFF75EFF079B039A9A4203D00349F62027
:10261000FFF767F900BF09B000BD00BF14640000F8
:1026200000B589B00590049103920293039B079330
:1026300007AA01230093029B04990598FFF740FF26
:10264000079B039A9A4204D003494FF48070FFF726
:1026500048F900BF09B000BD1464000082B00190C9
:10266000019B9B6800229A60019B9B6800221A6173
:10267000019B9B6800225A61019B9B680022DA60E3
:10268000019B9B6800225A60019B9B6800221A6094
:1026900000BF02B07047000000B585B001900198FE
:1026A00000F00CF80390039B002B01D0039B00E08B
:1026B000014B184605B000BD9864000086B001903B
:1026C000164B0593164B04931FE0049A059BD31AEF
:1026D000DB10DA0F13445B10DB00059A13440393FD
:1026E000039B1B680293029A019B9A4202D9039BA7
:1026F00004930AE0029A019B9A4203D2039B083397
:10270000059302E0039B5B6804E0059A049B9A42F0
:10271000DBD30023184606B0704700BF6C6800008A
:102720008469000000B585B00190019B002B0AD0A0
:10273000064B43F001030393019B9B010293039B10
:102740000298984700E000BF05B000BDC0690000D6
:1027500000B583B00190019B1B68184600F074F827
:102760000346002B04D10B494FF4F670FFF7B9F87C
:10277000019B1B681F2B02D84FF0A04306E0019B72
:102780001B6803F01F02019B1A60034B184603B03D
:1027900000BD00BF846900000003005000B585B093
:1027A000019001AB1846FFF7D3FF0390019B012274
:1027B00002FA03F31946039800F032F800BF05B09F
:1027C00000BD00B585B0019001AB1846FFF7C0FF12
:1027D0000390019B012202FA03F31946039800F0CB
:1027E00029F800BF05B000BD00B585B0019001AB70
:1027F0001846FFF7ADFF0390039800F009F8024672
:10280000019B22FA03F303F00103184605B000BD53
:1028100082B00190019BD3F81035184602B0704782
:1028200082B001900091019B009AC3F8082500BF77
:1028300002B0704782B001900091019B009AC3F8EA
:102840000C2500BF02B0704784B00190019B5B096A
:10285000029300230393029B002B03D0029B012BC6
:1028600004D007E04FF0FF33039303E04FF6FF730C
:10287000039300BF019B03F01F030193039A019B85
:1028800022FA03F303F00103DBB2184604B07047E9
:1028900000B585B001904FF0A042019B1B6803F585
:1028A000E07340F20C6142F823104FF0A042019B0C
:1028B0005B6803F5E07340F20C6142F82310019B62
:1028C0001B681846FFF76AFF019B5B681846FFF715
:1028D00065FF4FF0A042019B1B6803F5E07340F2D7
:1028E0000D6142F823104FF0A042019B5B6803F595
:1028F000E07340F20D6142F823100420FFF712FF4D
:10290000002303931EE0019B5B681846FFF76CFFF2
:102910000346002B03D0039B002B17D124E0019B1F
:102920001B681846FFF74DFF0420FFF7FBFE019BD5
:102930001B681846FFF732FF0420FFF7F3FE039BE6
:1029400001330393039B082BDDDD00E000BF019BF7
:102950005B681846FFF735FF0420FFF7E3FE019B95
:102960005B681846FFF71AFF05B000BD00B589B0D7
:1029700001900091009B0793019B1B788DF80C3010
:10298000019B1B798DF81030019B5B798DF811301C
:10299000019B9B68DBB28DF81230019BDB68DBB2D8
:1029A0008DF81330019B1B690593019B5B690693AE
:1029B000064A079B52F823300549079A51F822101E
:1029C00003AA1046984700BF09B000BD600600206A
:1029D0006806002000B587B0039002910192009331
:1029E000039B1B7805931249059B019A41F823200C
:1029F0001049059B009A41F82320029B5B7B002B2A
:102A000002D00298FFF744FF00230493039B181D94
:102A1000019B002B01D0084A00E00022059B02998F
:102A200000F0FAFB0490049B184607B000BD00BFFD
:102A300060060020680600206D29000000B589B0FE
:102A400001900091009B0793019B1B788DF80C303F
:102A5000019B5B680493019B9B68DBB28DF814308B
:102A6000019BDB680693074A079B52F8233006490F
:102A7000079A51F8221003AA1046984700BF09B0E0
:102A800000BD00BF700600207806002000B589B0A8
:102A900001900091009B0793019B1B788DF80C30EF
:102AA000019B5B680493019B9B68DBB28DF814303B
:102AB000019BDB680693074A079B52F823300649BF
:102AC000079A51F8221003AA1046984700BF09B090
:102AD00000BD00BF700600207806002030B58FB022
:102AE000039002910192039B1B780C932C490C9B41
:102AF000019A41F82320029B1A692A490C9B41F84C
:102B000023200C9B012B07D1029B5B7F002B03D161
:102B100025497620FEF7E5FE029B5B7F1946234A96
:102B20000C9B13440A461A70029B04AC1D460FCD41
:102B30000FC495E80F0084E80F000C9B0893002356
:102B40000D93039B1B781A46184B9B5C002B0DD0F2
:102B5000039B181D019B002B01D0154A00E00022A9
:102B600004AB194602F00CFA0D9014E0039B1B789D
:102B70001A460E4B9B5C002B0DD1039B03F10C00FE
:102B8000019B002B01D00B4A00E0002204AB194648
:102B900001F09AFB0D900D9B18460FB030BD00BFA1
:102BA0007006002078060020C8690000800600201A
:102BB0003D2A00008D2A000008B5064B1B68002B3B
:102BC00003D105495120FEF78CFE024B1B68984744
:102BD00008BD00BF84060020506A000082B001904A
:102BE000019B044A934201D1034B00E000231846A5
:102BF00002B07047002000408406002000B587B076
:102C000001900091019B002B03D118497720FEF71A
:102C100068FE0198FFF7E2FF0590059B002B1ED090
:102C200000238DF813300020FEF714FE059B1B795E
:102C3000002B03D001238DF8133005E0059B009A8B
:102C40001A60059B01221A710020FEF717FE9DF8FD
:102C50001330002B03D011230393039B02E00023C6
:102C60000393039B184607B000BD00BF506A0000E5
:102C700000B585B00190019B002B03D109499B2031
:102C8000FEF72FFE0198FFF7A9FF0390039B002B8F
:102C900005D0039B00221A60039B00221A7100BF1B
:102CA00005B000BD506A000082B003468DF80730C1
:102CB0009DF90730002B0CDB9DF8073003F01F0255
:102CC00005499DF907305B09012000FA02F241F83D
:102CD000232000BF02B0704700E100E082B003464D
:102CE0008DF807309DF90730002B0DDB9DF807307C
:102CF00003F01F0206499DF907305B09012000FA25
:102D000002F2603341F8232000BF02B0704700BFD9
:102D100000E100E082B0034600918DF807309DF994
:102D20000730002B0ADB009BDAB20C499DF9073013
:102D30005201D2B20B4483F800230BE0009BDAB2BD
:102D400007499DF8073003F00F03043B5201D2B24C
:102D50000B441A7600BF02B0704700BF00E100E0EC
:102D600000ED00E082B00190019B03F06043B3F1FD
:102D7000005F0CBF01230023DBB2184602B070478E
:102D800082B00190019B1B0B5BB2184602B07047EA
:102D900000B583B003460A468DF8073013468DF818
:102DA00006309DF80630072B03D907496B20FEF744
:102DB00098FD9DF806209DF9073011461846FFF74B
:102DC000A9FF00BF03B000BDD46A000000B583B006
:102DD00003468DF807309DF907301846FFF764FF6A
:102DE00000BF03B000BD00B583B003468DF80730C7
:102DF0009DF907301846FFF771FF00BF03B000BD13
:102E000082B001900B468DF803309DF80330019A93
:102E1000134401221A6000BF02B0704784B00190D1
:102E20000B46ADF80230BDF80230019A134400227F
:102E30001A60BDF80230019A13441B680393039B88
:102E400000BF04B0704782B001900B46ADF802306D
:102E5000BDF80230019A13441B68002B14BF0123F4
:102E60000023DBB2184602B0704782B00190009197
:102E7000019B009AC3F8042300BF02B0704782B0E0
:102E800001900091019B009AC3F8082300BF02B093
:102E9000704782B00190019B0622C3F8002500BF55
:102EA00002B0704782B00190019B0022C3F8002558
:102EB00000BF02B0704784B0039002910192039B5F
:102EC000029AC3F80825039B019AC3F80C2500BF9A
:102ED00004B0704782B001900091019B009AC3F842
:102EE000242500BF02B0704784B00190019BD3F845
:102EF000C4340393019B039AC3F8C424039B18466C
:102F000004B0704782B001900B468DF803309DF8F5
:102F10000320019BC3F8882500BF02B0704784B02E
:102F2000039002910192029A039BC3F84425039BEC
:102F3000019AC3F8482500BF04B0704784B00390DD
:102F400002910192029A039BC3F83425039B019AD4
:102F5000C3F8382500BF04B0704782B001900091DB
:102F6000019B009AC3F8002200BF02B0704782B0F4
:102F70000190019BD3F84C35184602B0704782B0DF
:102F80000190019BD3F80032184602B0704782B01E
:102F90000190019BD3F83C35184602B0704782B0CF
:102FA0000190019B0122C3F8502500BF02B0704779
:102FB00082B00190019B0022C3F8502500BF02B0EF
:102FC000704782B00190019B0122C3F8402500BFE9
:102FD00002B0704782B00190019B0022C3F84025E7
:102FE00000BF02B07047000000B583B00190019BA4
:102FF0001B68184600F04EF80346002B04D10B491D
:103000004FF4F670FEF76DFC019B1B681F2B02D876
:103010004FF0A04306E0019B1B6803F01F02019BD9
:103020001A60034B184603B000BD00BF046B0000DC
:103030000003005000B585B00190084611461A46BD
:1030400003468DF803300B468DF8023013468DF899
:10305000013001AB1846FFF7C7FF03909DF803202E
:103060009DF802305B001A439DF801309B001A4323
:103070009DF818301B0242EA03019DF81C301B0426
:10308000019A1943039B02F5E07243F8221000BF36
:1030900005B000BD84B00190019B5B090293002341
:1030A0000393029B002B03D0029B012B04D007E06B
:1030B0004FF0FF33039303E04FF6FF73039300BF1A
:1030C000019B03F01F030193039A019B22FA03F370
:1030D00003F00103DBB2184604B0704784B00190DE
:1030E00003230393019B03F00103002B02D04FF451
:1030F00002430393019B03F00203002B02D048F22A
:1031000001230393019B03F00403002B02D048F238
:1031100002230393039B184604B0704700B585B0A3
:103120000190009101238DF80F30009B1B7B032B36
:103130000AD0032B54DC022B26D0022B50DC002BB0
:1031400036D0012B40D04BE0009B9B6803F48023DA
:10315000002B07D00198FFF70AFF0246009B1B696E
:103160009A420DD1009B9B6803F48023002B39D138
:103170000198FFF7FCFE0246009B5B699A4231D042
:1031800000238DF80F302DE00198FFF7F0FE024686
:10319000009B1B699A4207D10198FFF7F8FE02468F
:1031A000009B5B699A421FD000238DF80F301BE013
:1031B0000198FFF7DCFE0246009B1B699A4215D07E
:1031C00000238DF80F3011E00198FFF7E0FE024672
:1031D000009B1B699A420BD000238DF80F3007E04B
:1031E00000BF06E000BF04E000BF02E000BF00E057
:1031F00000BF9DF80F3083F00103DBB2002B05D038
:103200000198FFF74FFE0198FFF743FE9DF80F303E
:10321000184605B000BD000000B58BB005900491C4
:1032200003920293049B002B03D14A49E720FEF747
:1032300058FB049B1A68049B5B689A4203D145497A
:10324000E820FEF74EFB059B1B791A46342302FB50
:1032500003F3414A13440893089B93F82D30002B45
:1032600003D008230793079B70E0059B1A68059B12
:103270001B791946394B53F8213019461046FFF790
:10328000BDFC0346002B03D011230793079B5DE091
:10329000089B039A1A60089B029A5A60089B0022B6
:1032A0009A60089B002283F83020089B002283F854
:1032B0002F20049B5A7B089B83F83220049B1868BC
:1032C0000023019306230093032300220021FFF72C
:1032D000B1FE049B58680023019306230093032347
:1032E00000220021FFF7A6FE059B1B680993049BA3
:1032F0001968049B5B681A460998FFF7DCFD049B7C
:103300009B6819460998FFF7E5FD089B1B68002B91
:1033100015D0059B1B681846FFF732FD03461A4679
:10332000049B1B7B19461046FFF732FD059B1B686B
:103330001846FFF725FD03461846FFF747FD089B93
:10334000012283F82D2000230793079B18460BB01A
:1033500000BD00BF3C6B00008C060020BC6B000071
:1033600000B585B00190019B1B791A46342302FBFE
:1033700003F30C4A13440393039B93F82D30012B62
:1033800004D0094940F24F10FEF7ABFA019B1B68CD
:103390001846FFF77EFD039B022283F82D2000BF15
:1033A00005B000BD8C0600203C6B000000B583B06A
:1033B00001900091009B03F00103002B03D00198C2
:1033C000FFF7EDFD02E00198FFF7F2FD009B03F02F
:1033D0000203002B03D00198FFF7F3FD02E00198F0
:1033E000FFF7F8FD00BF03B000BD000030B589B0A5
:1033F00003900291019200930023079308238DF814
:103400001B30039B002283F82E20019BDB681846AB
:10341000FFF7A8FC034683F00103DBB2002B03D0C7
:1034200010230793079BFBE19C490298FFF727FDB8
:10343000039B93F82F30DBB2002B09D0039B9B68D2
:1034400019460298FFF711FD11230793079BE7E147
:10345000009B03F00403002B06D1009B03F0100334
:10346000002B01D1012300E0002303F00103DAB2B5
:10347000039B83F82F20039B019A03F10C0415464C
:103480000FCD0FC42B682360009B1B0903F00103C1
:10349000DAB2039B83F83020039B009A1A62019BE7
:1034A0005B7819460298FFF72DFD4FF48271029860
:1034B000FFF7B4FC4FF492710298FFF7AFFC4FF4A2
:1034C000B0710298FFF7AAFC4FF4A4710298FFF7BD
:1034D000A5FC00990298FFF769FF019B1B78032B5D
:1034E0000ED0032B00F3DE80022B6ED0022B00F3F4
:1034F000D980002B00F09580012B00F0B680D1E040
:10350000009B03F01003002B04D065494FF4D970E1
:10351000FEF7E7F9009B03F00803002B04D0604995
:1035200040F2B310FEF7DDF9009B03F00403002B1B
:1035300004D05B494FF4DA70FEF7D3F9019B1B69A5
:103540001846FFF70FFC034683F00103DBB2002BA4
:1035500003D010230793079B62E14FF48071029818
:10356000FFF7FBFC019BD968019B5B681A46029838
:10357000FFF7D5FC4FF4A8710298FFF74FFC20210C
:103580000298FFF73DFC08210298FFF739FC00BFC5
:103590004FF4A8710298FFF756FC034683F001032D
:1035A000DBB2002BF4D14FF4A8710298FFF736FC80
:1035B000019B1969019B9B681A460298FFF7AFFCB3
:1035C000039B4FF480229A606FE0019BD968019BB6
:1035D0005B681A460298FFF7A2FC019B1B6918461C
:1035E000FFF7C0FB034683F00103DBB2002B03D0DF
:1035F00010230793079B13E1019B1969019B9B68AB
:103600001A460298FFF79AFC4FF484510298FFF78C
:10361000A4FC039B02229A6020210298FFF7F0FB92
:1036200043E0019BD968019B5B681A460298FFF74B
:1036300076FC009B03F02003002B09D04FF480712F
:103640000298FFF78AFC039B4FF480229A6007E000
:103650004FF400710298FFF780FC039B02229A60EE
:1036600020210298FFF7CCFB1FE0019BD968019B4A
:103670005B681A460298FFF761FC4FF4805102988C
:10368000FFF76BFC039B02229A6000238DF81B302E
:1036900020210298FFF7B4FB07E000BF02029C0163
:1036A0003C6B00000723079300BF009B03F0080357
:1036B000002B09D1019B1B78032B05D09DF81B30F3
:1036C00019460298FFF79CFB039B1B68002B1FD039
:1036D000009B03F00403002B02D0039B00229A609E
:1036E000009B03F04003002B05D1039B9B6843F034
:1036F0000202039B9A60039B9B6843F40072039B46
:103700009A60039B9B6819460298FFF7AEFB86E020
:1037100000238DF81A304FF4A4710298FFF793FB41
:103720000346002B02D001238DF81A304FF482712A
:103730000298FFF788FB0346002B07D04FF48271F5
:103740000298FFF76BFB01238DF81A304FF492714A
:103750000298FFF778FB0346002B38D04FF49271A4
:103760000298FFF75BFB4FF4B0710298FFF76BFB19
:1037700003468DF819300298FFF701FC05909DF87B
:10378000193083F00103DBB2002B04D1059B03F455
:103790000073002B0AD120210298FFF731FB14217E
:1037A0000298FFF72DFB00238DF81A309DF8193091
:1037B000002B0CD0059B03F48073002B07D04FF433
:1037C000A4710298FFF72AFB00238DF81A309DF8A8
:1037D0001A3083F00103DBB2002B9CD10298FFF773
:1037E00083FB0490039B002283F82F20049B002B73
:1037F00004D00498FFF772FC079010E0009B03F0E0
:103800004003002B0BD103990298FFF787FC034676
:1038100083F00103DBB2002B01D003230793079B46
:10382000184609B030BD00BF00B587B003900291C3
:103830000192039B1B79002B09D1029B5B68B3F5B6
:10384000803F04D2029B9B68B3F5803F12D3039B59
:103850001B79012B09D1029B5B68B3F5803F04D231
:10386000029B9B68B3F5803F04D31B4940F26A205A
:10387000FEF737F800230593039B1B791A46342380
:1038800002FB03F3154A13440493049B1B68002BAB
:1038900008D1029B1B78022B04D10F4940F2722001
:1038A000FEF71FF8049B1B68002B08D1029B1B78B6
:1038B000032B04D1084940F27320FEF712F8039B52
:1038C0001968019B029A0498FFF790FD0590059BEB
:1038D000184607B000BD00BF3C6B00008C060020FE
:1038E00000B58BB00390019200930B468DF80B301E
:1038F00001238DF814309DF80B308DF81530009BA6
:10390000069300230793019B08930023099305ABBB
:10391000002219460398FFF787FF034618460BB0AD
:1039200000BD000030B58BB001900091009B1B687A
:10393000002B04D1A24940F2C120FDF7D2FF4FF481
:1039400092710198FFF77FFA0346002B3ED04FF4A7
:1039500092710198FFF762FA4FF482710198FFF7B4
:1039600072FA034683F00103DBB2002B2ED0009BDA
:103970009B6819460198FFF782FA009B02229A6021
:10398000009B9B6819460198FFF76FFA4FF4B071DE
:103990000198FFF758FA034683F00103DBB2002BCE
:1039A00007D10198FFF7EBFA034603F40073002BED
:1039B00007D120210198FFF723FA14210198FFF77E
:1039C0001FFA009B012283F82E20F6E04FF482714B
:1039D0000198FFF738FA0346002B5DD04FF482714F
:1039E0000198FFF71BFA009B1B6A03F04003002BB2
:1039F0001AD1009B93F82E3083F00103DBB2002B29
:103A000012D000990198FFF789FB0346002B14BFE1
:103A100001230023DBB283F00103DBB203F00103D7
:103A2000DAB2009B83F82E20009B1B6A03F004038C
:103A3000002B79D1009B04AC03F10C050FCD0FC412
:103A40002B6823604FF4B0710198FFF7E7F94FF44A
:103A5000AE710198FFF7E2F9009B93F8303083F0E4
:103A60000103DBB2002B04D1009B93F82E30002B16
:103A70005AD000210198FFF770FA009B00229A604B
:103A800050490198FFF7FBF90198FFF779F90346D0
:103A90001846FFF7A8F947E04FF4A4710198FFF723
:103AA000BDF9009B1B7B002B22D1009B04AC03F1D2
:103AB0000C050FCD0FC42B682360009B93F83030AA
:103AC00083F00103DBB2002B2ED000210198FFF719
:103AD00044FA009B00229A603A490198FFF7CFF917
:103AE0000198FFF74DF903461846FFF77CF91BE0F4
:103AF0004FF400710198FFF730FA009B40F2022268
:103B00009A6030490198FFF7BAF9009B9B68194603
:103B10000198FFF7AAF908210198FFF771F9202110
:103B20000198FFF76DF948E00198FFF7DDF909907A
:103B3000099B03F00203002B03D001238DF80C3006
:103B40001DE0099B03F00403002B03D002238DF832
:103B50000C3014E0099B03F00103002B03D0032376
:103B60008DF80C300BE0009B93F82E30002B03D027
:103B700004238DF80C3002E000238DF80C30009BFC
:103B800093F8303083F00103DBB2002B03D0009BAD
:103B9000002283F82F20009B1B6A03F00403002BF4
:103BA00004D0009B93F82E30002B06D0009B1B689E
:103BB000009A516803AA104698470BB030BD00BF69
:103BC0003C6B000002029C0108B503490348FFF763
:103BD000A9FE00BF08BD00BF8C06002000300040D9
:103BE00008B503494FF04020FFF79CFE00BF08BD19
:103BF000C006002082B003468DF807309DF90730DB
:103C0000002B0CDB9DF8073003F01F0205499DF9DE
:103C100007305B09012000FA02F241F8232000BFBF
:103C200002B0704700E100E082B003468DF8073033
:103C30009DF90730002B13DB9DF8073003F01F02BE
:103C400009499DF907305B09012000FA02F220338F
:103C500041F82320BFF34F8F00BFBFF36F8F00BF2A
:103C600000BF02B0704700BF00E100E082B0034631
:103C700000918DF807309DF90730002B0ADB009B7F
:103C8000DAB20C499DF907305201D2B20B4483F8E5
:103C900000230BE0009BDAB207499DF8073003F0E0
:103CA0000F03043B5201D2B20B441A7600BF02B09C
:103CB000704700BF00E100E000ED00E082B001903D
:103CC000019B1B0B5BB2184602B0704700B583B076
:103CD00003460A468DF8073013468DF806309DF8E6
:103CE0000630072B03D907496B20FDF7FAFD9DF835
:103CF00006209DF9073011461846FFF7B7FF00BFB1
:103D000003B000BDC46B000000B583B003468DF85E
:103D100007309DF907301846FFF76CFF00BF03B06E
:103D200000BD00B583B003468DF807309DF907301C
:103D30001846FFF779FF00BF03B000BD84B00190C3
:103D40000B46ADF80230BDF80230019A1344002250
:103D50001A60BDF80230019A13441B680393039B59
:103D600000BF04B0704782B001900B46ADF802303E
:103D7000BDF80230019A13441B68002B14BF0123C5
:103D80000023DBB2184602B0704782B00190009168
:103D9000019B009AC3F8042300BF02B0704782B0B1
:103DA00001900091019BD3F80423009B1340002B4A
:103DB00014BF01230023DBB2184602B0704782B063
:103DC00001900091019B009AC3F8082300BF02B044
:103DD000704784B00190019BD3F880340393019B1A
:103DE000039AC3F88024039B184604B0704782B03E
:103DF0000190019B0422C3F8002500BF02B0704768
:103E000082B00190019B0022C3F8002500BF02B0E0
:103E1000704784B0039002910192039B019AC3F80A
:103E20001425039B029AC3F80C2500BF04B0704709
:103E300000B583B001904FF0FF324FF0FF31019891
:103E4000FFF7E7FF00BF03B000BD82B00190019B08
:103E5000D3F80C35184602B0704782B00190019B30
:103E6000D3F81435184602B0704782B00190019B18
:103E7000D3F80835184602B0704782B00190019B14
:103E8000D3F81035184602B0704784B00390029101
:103E90000192039B029AC3F80825039B019AC3F879
:103EA000102500BF04B0704700B583B001904FF0FB
:103EB000FF324FF0FF310198FFF7E7FF00BF03B07B
:103EC00000BD82B00190019BD3F81835DBB21846D3
:103ED00002B0704782B001900B468DF803309DF818
:103EE0000320019BC3F81C2500BF02B0704782B0BD
:103EF00001900B468DF803309DF80330019A13446E
:103F000001221A6000BF02B0704782B001900B46D8
:103F10008DF8033013468DF802309DF803209DF88C
:103F200002301343DBB21A46019BC3F86C2500BF75
:103F300002B0704782B001900091019B009AC3F8D3
:103F4000242500BF02B0704700B583B00190019BEB
:103F50001B68184600F09FF80346002B04D10B495C
:103F60004FF4F670FDF7BDFC019B1B681F2B02D8B8
:103F70004FF0A04306E0019B1B6803F01F02019B6A
:103F80001A60034B184603B000BD00BFF46B00007D
:103F90000003005000B585B00190084611461A464E
:103FA00003468DF803300B468DF8023013468DF82A
:103FB000013001AB1846FFF7C7FF03909DF80320BF
:103FC0009DF802305B001A439DF801309B001A43B4
:103FD0009DF818301B0242EA03019DF81C301B04B7
:103FE000019A1943039B02F5E07243F8221000BFC7
:103FF00005B000BD00B585B00390002301930023F8
:1040000000930023012201210398FFF7C3FF00BFA3
:1040100005B000BD00B585B003900B468DF80B30A0
:104020009DF80B3000220192002200920022002114
:104030000398FFF7AFFF00BF05B000BD00B585B026
:104040000390002301930023009300230122002109
:104050000398FFF79FFF00BF05B000BD00B585B016
:10406000019001AB1846FFF76FFF0390019B0122FF
:1040700002FA03F31946039800F003F800BF05B0F5
:1040800000BD82B001900091019B009AC3F8082501
:1040900000BF02B0704784B00190019B5B0902939E
:1040A00000230393029B002B03D0029B012B04D01F
:1040B00007E04FF0FF33039303E04FF6FF730393E2
:1040C00000BF019B03F01F030193039A019B22FA97
:1040D00003F303F00103DBB2184604B0704700B5E8
:1040E00083B001900091009B1B68B3F1FF3F09D0A2
:1040F000009B1B681846FFF7B1FF009B1B68184622
:10410000FFF778FF009B5B68B3F1FF3F05D0009B92
:104110005B6800211846FFF77DFF019B1A68009B32
:104120009B6919461046FFF705FF019B1868009B25
:10413000597D009B1B7D1A46FFF7E7FE019B18681F
:10414000009B1968009B5B681A46FFF762FE009BA4
:104150001B7D012B22D1009B9B68B3F1FF3F05D053
:10416000009B9B6800211846FFF754FF009BDB680B
:10417000B3F1FF3F09D0009BDB681846FFF76EFFE5
:10418000009BDB681846FFF735FF019B1868009B12
:10419000D968009B9B681A46FFF777FE00BF03B003
:1041A00000BD000000B583B001900B468DF80330D0
:1041B000019B1B684FF48E711846FFF7BFFD019BF2
:1041C0001B684FF4A2711846FFF7B8FD019B1B68EE
:1041D0000E491846FFF7D9FD019B1B681846FFF7EB
:1041E0006DFD03461A469DF8033019461046FFF749
:1041F0006DFD019B1B681846FFF760FD03461846DE
:10420000FFF782FD00BF03B000BD00BF80000200C9
:1042100000B583B00190019B1B6808491846FFF761
:10422000CEFD019B1B681846FFF748FD0346184664
:10423000FFF777FD00BF03B000BD00BF840202009E
:1042400000B587B00190019B1B681846FFF7FDFD84
:104250000590019B1B681846FFF7FFFD0490019B2A
:104260001B681846FFF701FE0390019B1B68184668
:10427000FFF703FE0290019B1B681846FFF7D8FD6D
:10428000019B1B681846FFF70FFE059BB3F1FF3F2C
:1042900002D00598FFF7D2FE049BB3F1FF3F02D096
:1042A0000498FFF7CBFE029BB3F1FF3F02D00298C8
:1042B000FFF7C4FE039BB3F1FF3F02D00398FFF763
:1042C000BDFE00BF07B000BD00B587B003900291EE
:1042D0000192029B002B03D12C49AA20FDF701FB80
:1042E000039B1B791A462C2302FB03F3284A134431
:1042F000049300230593049B93F82A30002B03D0EA
:1043000008230593059B3EE0039B1A68039B1B79DA
:104310001946204B53F8213019461046FEF76EFC23
:104320000346002B03D011230593059B2BE0029934
:104330000398FFF7D4FE049B019A5A60029B1A6906
:10434000049B1A60049B5B68002B05D0029B1B7FBB
:1043500019460398FFF726FF039B1B681846FFF7D3
:1043600046FD049B00229A61049B0022DA61049BB3
:10437000002283F82920049B00225A61049B012219
:1043800083F82A20059B184607B000BD2C6C00005E
:10439000F4060020AC6C000000B585B00190019BD4
:1043A0001B791A462C2302FB03F3104A1344039390
:1043B000019B1B681846FFF723FD039B5B68002BDE
:1043C00002D00198FFF724FF0198FFF739FF019B06
:1043D0001B681846FEF74CFC039B002283F82A203A
:1043E000039B00225A6000BF05B000BDF406002008
:1043F00000B585B0019000914FF48E710198FFF7E0
:104400009DFC009B9A68009B1B6A13441B788DF8E7
:104410000F30009B1B6A5A1C009B1A629DF80F30DC
:1044200019460198FFF756FD00BF05B000BD00B565
:1044300085B001900091009B5B69039316E0009B9F
:1044400093F82830DBB2002B01D0002314E04FF4A6
:104450008E710198FFF787FC034683F00103DBB2FE
:10446000002BECD100990198FFF7C2FF009B1B6A5B
:10447000039A9A42EBD80123184605B000BD00000C
:1044800000B587B0039002910192039B1B791A46F5
:104490002C2302FB03F33B4A13440493049B93F83D
:1044A0002A30012B04D038494FF48C70FDF719FAEB
:1044B000029B002B04D1344940F21910FDF711FA88
:1044C000019B002B04D130494FF48D70FDF709FAA0
:1044D000039800F05BF80346002B03D011230593EB
:1044E000059B4CE0049B019A5A61049B029A9A60D6
:1044F000049B00221A62049B002283F828200023D8
:104500000593039B1B684FF48E711846FFF716FC4A
:10451000039B1B6808211846FFF7E9FC039B1B68F7
:1045200004991846FFF764FF049B5B68002B25D1B4
:10453000039B1B6804991846FFF779FF034683F035
:104540000103DBB2002B02D00F23059313E000BF61
:10455000039B1B684FF48E711846FFF704FC03465B
:1045600083F00103DBB2002BF2D1039B1B680C210B
:104570001846FFF7BCFC049B00225A61059B1846B5
:1045800007B000BDF40600202C6C000082B0019042
:10459000019B1B791946074A2C2301FB03F31344A3
:1045A00014331B68002B14BF01230023DBB2184611
:1045B00002B07047F406002010B582B0019000915F
:1045C000009B9B69002B08D14FF484710198FFF781
:1045D000B5FB0198FFF775FC13E04FF48471019867
:1045E000FFF7ACFB009BDA68009B5B6AD41801986C
:1045F000FFF767FC03462370009B5B6A5A1C009B15
:104600005A6202B010BD00B589B0039002910192C8
:1046100001238DF81030029B0693019B0593039BA9
:104620005B68039A116804AA1046984700BF09B056
:1046300000BD00B587B00190009100238DF80830CF
:10464000009B0493019B9B680393019B00225A618A
:10465000019B5B68019A116802AA1046984700BF47
:1046600007B000BD00B58BB0019000914FF4007110
:104670000198FFF794FB0346002B39D04FF4927159
:104680000198FFF770FB0346002B31D04FF4927175
:104690000198FFF753FB4FF401710198FFF78FFB6F
:1046A000009B93F8293083F00103DBB2002B03D089
:1046B00004210198FFF71BFC02238DF80C300198B0
:1046C000FFF787FB03460693009B9B690593009BBE
:1046D000DB680493009B00229A61009B0022DA6150
:1046E000009B5B68009A116803AA1046984752E045
:1046F00004210198FFF753FB0346002B4BD04FF4E6
:1047000084710198FFF72FFB0346002B43D00099DB
:104710000198FFF751FF009B9A69009B5B6A9A42E0
:1047200039D1009BDB69002B19D0009BDB68099312
:10473000009B5B6A0893009BDA69009B9A61009B6F
:104740001A69009BDA60009B0022DA61009B00225C
:104750005A62099A08990098FFF755FF1BE0009BE1
:1047600093F8293083F00103DBB2002B03D004213E
:104770000198FFF7BCFB4FF401710198FFF71FFB95
:10478000009B00229A61009B596A009BDB681A46D5
:104790000098FFF738FF4FF48E710198FFF7E3FAA6
:1047A0000346002B24D0009B5B690793009B1B6A88
:1047B000079A9A420DD9009B93F82830DBB283F018
:1047C0000103DBB2002B04D000990198FFF710FE23
:1047D0000EE04FF48E710198FFF7B0FA009B5B6911
:1047E000002B05D0009B5B6919460098FFF721FF5D
:1047F0004FF4A2710198FFF7B6FA0346002B1CD0C4
:104800004FF4A2710198FFF799FA009B93F82930B1
:10481000002B03D000210198FFF769FB009B9B69E7
:10482000002B0AD0009B00229A61009B596A009BD2
:10483000DB681A460098FFF7E6FE00BF0BB000BD2C
:1048400008B503490348FFF70DFF00BF08BD00BFCF
:10485000F40600200020004082B003468DF80730A7
:104860009DF90730002B0CDB9DF8073003F01F0289
:1048700005499DF907305B09012000FA02F241F871
:10488000232000BF02B0704700E100E082B0034681
:104890008DF807309DF90730002B13DB9DF80730AA
:1048A00003F01F0209499DF907305B09012000FA56
:1048B00002F2203341F82320BFF34F8F00BFBFF334
:1048C0006F8F00BF00BF02B0704700BF00E100E083
:1048D00082B0034600918DF807309DF90730002B18
:1048E0000ADB009BDAB20C499DF907305201D2B2C3
:1048F0000B4483F800230BE0009BDAB207499DF8D4
:10490000073003F00F03043B5201D2B20B441A7676
:1049100000BF02B0704700BF00E100E000ED00E022
:1049200082B00190019B03F06043B3F1005F0CBFC4
:1049300001230023DBB2184602B0704782B0019019
:10494000019B1B0B5BB2184602B0704700B583B0E9
:1049500003460A468DF8073013468DF806309DF859
:104960000630072B03D907496B20FCF7BAFF9DF8E7
:1049700006209DF9073011461846FFF7A9FF00BF32
:1049800003B000BDB06C000000B583B003468DF8E5
:1049900007309DF907301846FFF75EFF00BF03B0F0
:1049A00000BD00B583B003468DF807309DF9073090
:1049B0001846FFF76BFF00BF03B000BD84B0019045
:1049C0000B46ADF80230BDF80230019A13440022C4
:1049D0001A60BDF80230019A13441B680393039BCD
:1049E00000BF04B0704782B001900B46ADF80230B2
:1049F000BDF80230019A13441B68002B14BF012339
:104A00000023DBB2184602B0704782B001900091DB
:104A1000019BD3F80022009BDB431A40019BC3F8A3
:104A2000002200BF02B0704782B001900091019B4C
:104A3000009AC3F8042300BF02B0704782B001900F
:104A40000091019B009AC3F8082300BF02B0704791
:104A500084B00190019BD3F880340393019B039AA7
:104A6000C3F88024039B184604B0704782B00190BD
:104A7000019B0822C3F8002500BF02B0704782B036
:104A80000190019B0022C3F8002500BF02B07047CF
:104A900084B0039002910192039B029AC3F80C2503
:104AA000039B019AC3F8142500BF04B0704700B5FA
:104AB00083B001904FF0FF324FF0FF310198FFF7C4
:104AC000E7FF00BF03B000BD82B00190019BD3F8A7
:104AD0000C35184602B0704782B00190019BD3F8A4
:104AE0001435184602B0704782B00190019BD3F88C
:104AF0000835184602B0704782B00190019BD3F888
:104B00001035184602B0704784B0039002910192AC
:104B1000039B029AC3F80825039B019AC3F810254A
:104B200000BF04B0704700B583B001904FF0FF3272
:104B30004FF0FF310198FFF7E7FF00BF03B000BD62
:104B400082B001900B468DF803309DF80330019A36
:104B5000134401221A6000BF02B0704782B0019076
:104B60000B468DF8033013468DF802309DF8032074
:104B70009DF802301343DBB21A46019BC3F86C2543
:104B800000BF02B0704782B001900091019B009A73
:104B9000C3F8242500BF02B0704784B0039002918F
:104BA0000192029A039BC3F84425039B019AC3F820
:104BB000482500BF04B0704782B00190019BD3F834
:104BC0004C35184602B0704782B00190019BD3F873
:104BD0003C35184602B0704700B583B00190019B88
:104BE0001B68184600F09FF80346002B04D10B49C0
:104BF0004FF4F670FCF775FE019B1B681F2B02D863
:104C00004FF0A04306E0019B1B6803F01F02019BCD
:104C10001A60034B184603B000BD00BFE06C0000F3
:104C20000003005000B585B00190084611461A46B1
:104C300003468DF803300B468DF8023013468DF88D
:104C4000013001AB1846FFF7C7FF03909DF8032022
:104C50009DF802305B001A439DF801309B001A4317
:104C60009DF818301B0242EA03019DF81C301B041A
:104C7000019A1943039B02F5E07243F8221000BF2A
:104C800005B000BD00B585B003900023019300235B
:104C900000930023012201210398FFF7C3FF00BF07
:104CA00005B000BD00B585B003900B468DF80B3004
:104CB0009DF80B3000220192002200920022002178
:104CC0000398FFF7AFFF00BF05B000BD00B585B08A
:104CD000039000230193002300930023012200216D
:104CE0000398FFF79FFF00BF05B000BD00B585B07A
:104CF000019001AB1846FFF76FFF0390019B012263
:104D000002FA03F31946039800F003F800BF05B058
:104D100000BD82B001900091019B009AC3F8082564
:104D200000BF02B0704784B00190019B5B09029301
:104D300000230393029B002B03D0029B012B04D082
:104D400007E04FF0FF33039303E04FF6FF73039345
:104D500000BF019B03F01F030193039A019B22FAFA
:104D600003F303F00103DBB2184604B0704700B54B
:104D700083B001900091009B1B68B3F1FF3F09D005
:104D8000009B1B681846FFF7B1FF009B1B68184685
:104D9000FFF778FF009B5B68B3F1FF3F05D0009BF6
:104DA0005B6800211846FFF77DFF019B1A68009B96
:104DB0009B6919461046FFF7E6FE019B1868009BA9
:104DC000597D009B1B7D1A46FFF7C8FE019B1868A2
:104DD000009B1968009B5B681A46FFF759FE009B11
:104DE0001B7D012B22D1009B9B68B3F1FF3F05D0B7
:104DF000009B9B6800211846FFF754FF009BDB686F
:104E0000B3F1FF3F09D0009BDB681846FFF76EFF48
:104E1000009BDB681846FFF735FF019B1868009B75
:104E2000D968009B9B681A46FFF76EFE00BF03B06F
:104E300000BD000000B583B001900B468DF8033033
:104E4000019B1B684FF488711846FFF7B7FD019B63
:104E50001B684FF490711846FFF7B0FD019B1B686B
:104E60004FF492711846FFF7A9FD019B1B684FF4A0
:104E7000A2711846FFF7A2FD019B1B684FF4AC71AD
:104E80001846FFF79BFD019B1B680E491846FFF76C
:104E9000CBFD019B1B681846FFF750FD03461A46E1
:104EA0009DF8033019461046FFF750FD019B1B6823
:104EB0001846FFF743FD03461846FFF765FD00BFA0
:104EC00003B000BD1003420000B583B00190019B08
:104ED0001B6808491846FFF7B1FD019B1B6818467F
:104EE000FFF72CFD03461846FFF75BFD00BF03B03C
:104EF00000BD00BF1003420000B587B00190019BC8
:104F00001B681846FFF7E0FD0590019B1B681846DB
:104F1000FFF7E2FD0490019B1B681846FFF7E4FDD4
:104F20000390019B1B681846FFF7E6FD0290019B6A
:104F30001B681846FFF7BBFD019B1B681846FFF76F
:104F4000F2FD059BB3F1FF3F02D00598FFF7BEFECF
:104F5000049BB3F1FF3F02D00498FFF7B7FE029B1A
:104F6000B3F1FF3F02D00298FFF7B0FE039BB3F10D
:104F7000FF3F02D00398FFF7A9FE00BF07B000BDB6
:104F800000B587B0039002910192029B002B03D1E0
:104F90002B49CF20FCF7A5FC039B1B791A4613462F
:104FA000DB0013449B00274A13440493002305931A
:104FB000049B93F82030002B03D008230593059B16
:104FC0003AE0039B1A68039B1B7919461E4B53F862
:104FD000213019461046FDF711FE0346002B03D081
:104FE00011230593059B27E002990398FFF7BFFE65
:104FF000049B019A5A60029B1A69049B1A60049BE5
:105000005B68002B05D0029B1B7F19460398FFF7B6
:1050100011FF039B1B681846FFF728FD049B002225
:105020009A61049B0022DA61049B00225A61049B6E
:10503000012283F82020059B184607B000BD00BF61
:10504000186D000020070020986D000000B585B0A5
:105050000190019B1B791A461346DB0013449B0009
:105060002A4A13440393019B1B680293039B5B68CA
:10507000002B02D00198FFF727FF20210298FFF7AD
:10508000C4FC039B9B69002B08D04FF4A2710298CB
:10509000FFF794FC04210298FFF752FD4FF4AC7126
:1050A0000298FFF78BFC0C210298FFF749FD00BF27
:1050B0004FF4AC710298FFF796FC034683F00103AE
:1050C000DBB2002BF4D1039B9B69002B0AD04FF479
:1050D000A2710298FFF787FC034683F00103DBB25D
:1050E000002BE5D10298FFF7CAFC0198FFF704FFF7
:1050F0000298FDF7BDFD039B002283F82020039B4F
:1051000000225A6000BF05B000BD00BF200700208C
:1051100000B589B0039002910192039B1B791A4656
:105120001346DB0013449B00564A13440593059B2A
:1051300093F82030012B04D0534940F25310FCF770
:10514000D0FB029B002B04D14F494FF4AA70FCF70F
:10515000C8FB019B002B04D14B4940F25510FCF7D2
:10516000C0FB039B1B79002B03D1019BB3F5803F50
:1051700004D345494FF4AB70FCF7B3FB0298FFF73B
:10518000CFFB034683F00103DBB2002B03D01023D7
:105190000793079B73E0039800F078F80346002B11
:1051A00003D011230793079B69E0059B019A5A617D
:1051B000059B029A9A6000230793039B1B684FF498
:1051C00090711846FFF7FAFB039B1B684FF4AC7114
:1051D0001846FFF7F3FB039B1868059B9968059B2E
:1051E0005B691A46FFF7D9FC039B1B680821184628
:1051F000FFF7A6FC059B5B68002B3FD1039B1B6858
:105200004FF490711846FFF7EEFB03468DF81B3004
:10521000039B1B684FF4AC711846FFF7E4FB034691
:105220008DF81A309DF81B3083F00103DBB2002BA0
:1052300006D09DF81A3083F00103DBB2002BDDD1DC
:105240009DF81A30002B02D00F23079313E0039B25
:105250001B680C211846FFF773FC00BF039B1B68FB
:105260004FF4AC711846FFF7BEFB034683F0010311
:10527000DBB2002BF2D1059B00225A61079B184636
:1052800009B000BD20070020186D000082B0019019
:10529000019B1B791946084A0B46DB000B449B0017
:1052A000134414331B68002B14BF01230023DBB20B
:1052B000184602B0704700BF2007002000B589B033
:1052C00003900291019201238DF81030029B069306
:1052D000019B0593039B5B68039A116804AA10461F
:1052E000984700BF09B000BD00B587B0019000919C
:1052F00000238DF80830009B0493019B9B68039367
:10530000019B00225A61019B5B68019A116802AA05
:105310001046984700BF07B000BD00B589B00190A6
:1053200000914FF492710198FFF75DFB0346002B4B
:1053300022D04FF492710198FFF740FB02238DF8C1
:1053400008300198FFF784FB034605930198FFF7A7
:105350003BFC03460493009BDB680393009B002205
:105360009A61009B0022DA61009B5B68009A1168D9
:1053700002AA104698473BE04FF488710198FFF766
:1053800032FB0346002B33D04FF488710198FFF7AE
:1053900015FB0198FFF718FC0790009B9B69079A83
:1053A0009A4225D1009BDB69002B17D0009BDB685C
:1053B000069320210198FFF728FB009BDA69009BE8
:1053C0009A61009B1A69009BDA60009B0022DA61F7
:1053D000069A07990098FFF771FF09E0009B0022E9
:1053E0009A61009BDB681A4607990098FFF766FFF1
:1053F0004FF4A2710198FFF7F6FA0346002B18D07C
:105400004FF4A2710198FFF7D9FA009B9B69002B1A
:105410000FD0009B00229A61009B0022DA61019864
:10542000FFF7D2FB0146009BDB681A460098FFF7A6
:1054300045FF4FF490710198FFF7D5FA0346002B12
:1054400014D04FF490710198FFF7B8FA0C2101982D
:10545000FFF776FB009B5B69002B07D00198FFF7F5
:10546000ABFB034619460098FFF73EFF4FF4AC71C3
:105470000198FFF7B8FA0346002B10D04FF4AC7137
:105480000198FFF79BFA009B5B69002B07D00198FE
:10549000FFF792FB034619460098FFF725FF00BF70
:1054A00009B000BD08B503490348FFF736FF00BF48
:1054B00008BD00BF200700200020004000B583B0D9
:1054C0000190019B04331846FDF74AFF00BF03B06B
:1054D00000BD00B587B0039001921A460B468DF8C7
:1054E0000B3013468DF80A3000230593039B181DDB
:1054F0009DF80A309DF80B10019AFEF7F1F905901E
:10550000059B184607B000BD00B587B06B4600226A
:105510001A605A609A60DA601B2300931A23019381
:105520004FF0CC73029302238DF80C3069460023B0
:1055300000220A48FDF74EFA0590059B0493049B50
:10554000002B04D0064A36210498FCF7D7F803480C
:10555000FFF7B4FF00BF07B000BD00BF9C6D0000A7
:10556000AC6D000000B585B000238DF80E30002131
:105570000020FBF747F90290029B002B04D02F4A32
:1055800046210298FCF7BAF8FBF7D4F82C4A2D4BC9
:10559000D31ADB081B0443F003032B491846FBF71F
:1055A000F5FBFBF74BFC0346002BFAD1FFF7ACFFF2
:1055B00001238DF80F3025E00DF103029DF80F1047
:1055C00001232248FFF785FF0190019B002B0FD19B
:1055D00001238DF80E301A4A1A4BD31ADB081B042C
:1055E00043F003039DF80F2019491846FBF7DBFB36
:1055F000FBF724FC0346002BFAD19DF80F30013352
:105600008DF80F309DF90F30002BD5DA9DF80E3054
:1056100083F00103DBB2002B0FD0094A094BD31AE8
:10562000DB081B0443F003030A491846FBF7AEFBF3
:10563000FBF704FC0346002BFAD1FEE7AC6D00003B
:10564000A05E0000805E0000286E00009C6D0000DF
:10565000406E0000686E0000BFF34F8F00BF064B26
:10566000DB6803F4E0620449044B1343CB60BFF3EF
:105670004F8F00BF00BFFDE700ED00E00400FA051A
:1056800082B01D4B1B6801931C4B1B680093019B50
:10569000082B2CD1009B052B25D0009B052B24D853
:1056A000009B042B1DD0009B042B1ED8009B032BBA
:1056B00015D0009B032B18D8009B022B0DD0009B0C
:1056C000022B12D8009B002B03D0009B012B02D091
:1056D0000BE001230CE001230AE0012308E0012391
:1056E00006E0012304E0012302E0012300E000239F
:1056F000184602B0704700BF30010010340100109E
:1057000082B01D4B1B6801931C4B1B680093019BCF
:10571000082B2CD1009B052B25D0009B052B24D8D2
:10572000009B042B1DD0009B042B1ED8009B032B39
:1057300015D0009B032B18D8009B022B0DD0009B8B
:10574000022B12D8009B002B03D0009B012B02D010
:105750000BE001230CE001230AE0012308E0012310
:1057600006E0012304E0012302E0012300E000231E
:10577000184602B0704700BF30010010340100101D
:1057800082B01D4B1B6801931C4B1B680093019B4F
:10579000082B2CD1009B052B25D0009B052B24D852
:1057A000009B042B1DD0009B042B1ED8009B032BB9
:1057B00015D0009B032B18D8009B022B0DD0009B0B
:1057C000022B12D8009B002B03D0009B012B02D090
:1057D0000BE001230CE000230AE0002308E0002393
:1057E00006E0002304E0002302E0002300E00023A1
:1057F000184602B0704700BF30010010340100109D
:1058000082B01D4B1B6801931C4B1B680093019BCE
:10581000082B2CD1009B052B25D0009B052B24D8D1
:10582000009B042B1DD0009B042B1ED8009B032B38
:1058300015D0009B032B18D8009B022B0DD0009B8A
:10584000022B12D8009B002B03D0009B012B02D00F
:105850000BE001230CE000230AE0002308E0002312
:1058600006E0002304E0002302E0002300E0002320
:10587000184602B0704700BF30010010340100101C
:1058800082B01D4B1B6801931C4B1B680093019B4E
:10589000082B2CD1009B052B25D0009B052B24D851
:1058A000009B042B1DD0009B042B1ED8009B032BB8
:1058B00015D0009B032B18D8009B022B0DD0009B0A
:1058C000022B12D8009B002B03D0009B012B02D08F
:1058D0000BE001230CE000230AE0002308E0002392
:1058E00006E0002304E0002302E0002300E00023A0
:1058F000184602B0704700BF30010010340100109C
:1059000082B01D4B1B6801931C4B1B680093019BCD
:10591000082B2CD1009B052B25D0009B052B24D8D0
:10592000009B042B1DD0009B042B1ED8009B032B37
:1059300015D0009B032B18D8009B022B0DD0009B89
:10594000022B12D8009B002B03D0009B012B02D00E
:105950000BE001230CE000230AE0002308E0002311
:1059600006E0002304E0002302E0002300E000231F
:10597000184602B0704700BF30010010340100101B
:1059800082B01D4B1B6801931C4B1B680093019B4D
:10599000082B2CD1009B052B25D0009B052B24D850
:1059A000009B042B1DD0009B042B1ED8009B032BB7
:1059B00015D0009B032B18D8009B022B0DD0009B09
:1059C000022B12D8009B002B03D0009B012B02D08E
:1059D0000BE001230CE001230AE0012308E001238E
:1059E00006E0012304E0012302E0012300E000239C
:1059F000184602B0704700BF30010010340100109B
:105A000082B01D4B1B6801931C4B1B680093019BCC
:105A1000082B2CD1009B052B25D0009B052B24D8CF
:105A2000009B042B1DD0009B042B1ED8009B032B36
:105A300015D0009B032B18D8009B022B0DD0009B88
:105A4000022B12D8009B002B03D0009B012B02D00D
:105A50000BE000230CE000230AE0002308E0002311
:105A600006E0012304E0012302E0012300E000231B
:105A7000184602B0704700BF30010010340100101A
:105A800008B5FFF7BDFF0346002B07D04FF01023EA
:105A90004FF08042D3F80832C2F8583500BF08BD35
:105AA00000BF044BD3F80034002BFAD000BF00BF76
:105AB000704700BF00E0014000B583B00190044A88
:105AC000019BC2F80435FFF7EBFF00BF03B000BD38
:105AD00000E00140024B034A1A6000BF704700BF5C
